
 # test

8=FIX.4.4|9=176|35=D|34=2|49=SENDER|56=TARGET|52=2021-12:00:00.000|11=ABC123|55=BTCUSD|54=1|38=1|40=2|44=65000|59=0|60=2001-12:00:00.000|10=128
